:03004B0001180099
:0A07D100D2A5C2A6D2A7E4F580224B
:10075400C2A5D2A6D2A7E4F580D2A5D2A6D2A7F587
:020764008022F1
:10028E00E4F510F511F512F51353951F4396E0F5AD
:10029E00937594FF53B1F353B2F353B3EB53B4EBE3
:1002AE001207541207191207D17F0A7E001206791F
:1002BE001207E21207B91207E9D2AF7F0A7E0012C7
:1002CE0006791203B6BF01057518018016BF020527
:1002DE00751802800EBF05057518038006BF06034C
:1002EE00751804E51860DB14FF1205D87510008F21
:1002FE0011E51814FF1205D87510008F11AC10AD52
:10030E0011E41201717B487AE1799C784112006602
:10031E001201AA8E128F137C277D1012022BAA04B3
:10032E00AB057DE87C03AF03AE0212022B8F197D65
:10033E00E87C03AF03AE0212022BAA04AB057D6468
:10034E007C00AF03AE0212022B8F1A7D647C00AFCD
:10035E0003AE0212022BAA04AB057D0A7C00AF038A
:10036E00AE0212022B8F1B7D0A7C00AF03AE02126F
:10037E00022B7E007F0ACFCDCFCECCCE12022B8D9C
:10038E001C7B7FAD197F041207667BFFAD1A7F05BC
:10039E001207667BFFAD1B7F061207667BFFAD1C47
:0803AE007F071207660202D06E
:10067900E4FDFCC3ED9FEC9E5015E4FBFA0BBB00B7
:0F068900010ABA04F8BB7CF50DBD00010C80E43A
:01069800223F
:0B07C6000000000000000000DFF62231
:0707DB00C2A5C2A6D2A722AD
:100003001207DBEF14B40800503D90001B75F0039A
:10001300A4C58325F0C583730200330200360200B2
:100023003902003C02003F02004202004502004840
:10003300C28022C28122C28222C28322C28422C2FD
:080043008522C28622C2872239
:100501001207DBEF14B40800503D90051975F00394
:10051100A4C58325F0C583730205310205340205A4
:100521003702053A02053D02054002054302054630
:10053100D28022D28122D28222D28322D28422D29A
:080541008522D28622D2872216
:100549001207DBEF14B40800503D90056175F00304
:10055900A4C58325F0C5837302057902057C0205CC
:100569007F02058202058502058802058B02058E38
:10057900B28022B28122B28222B28322B28422B212
:080589008522B28622B287220E
:100705001207DBC280C281C282C283C284C285C293
:0407150086C28722EF
:100719001207DBD280D281D282D283D284D285D20F
:0407290086D28722CB
:10074100D2A1D2A07F0A1207C6C2A17F0A1207C690
:03075100C2A02221
:1006F000D2A07F0A1207C6A2A19200C2A07F0A124E
:0407000007C6A20086
:0107040022D2
:1006D500C2A0A20092A17F0A1207C6D2A07F0A1269
:0B06E50007C6C2A0D2A17F0A0207C610
:1006B900C2A07F0A1207C6D2A17F0A1207C6D2A01A
:0C06C9007F0A1207C6C2A07F0A0207C603
:10078A00C2A1D2A07F0A1207C6D2A17F0A0207C657
:020613008F1640
:10061500751708E4F517C2A07F0A1207C6E516305C
:10062500E704D2A18002C2A17F0A1207C6D2A0E5C3
:100635001625E0F5167F0A1207C60517E517C394B8
:050645000840D3C2A033
:01064A00228D
:10064B00751608E4F517F516D2A07F0A1207C6E552
:10065B001725E0F51730A103431701C2A07F0A123B
:0D066B0007C60516E516C3940840DDAF175D
:01067800225F
:0707E2005395FC5396FC2225
:1003B6007521F075220F53B1F343B20C53B3EB43DF
:1003C600B414D2B3D2B2C2C4C2C27F0A7E0012062D
:1003D6007953B1F353B2F37F0A7E0012067920B344
:1003E6000D7F0A7E0012067920B30353220E20B237
:1003F6000D7F0A7E0012067920B20353220D53B1F7
:10040600F343B20C53B3EB43B414C2B3C2B2D2C477
:10041600D2C27F0A7E0012067953B3EB53B4EB7F48
:100426000A7E0012067920C40D7F0A7E0012067924
:1004360020C4035321E020C20D7F0A7E00120679F4
:1004460020C2035321D0E5214522F5236323FFE58E
:100456002324EE600E24F1600D14600D2411700C3F
:0E0466007F01227F02227F05227F06227F0077
:010474002265
:0205D8008F147E
:1005DA00E4F5151207417F901206131206F0AF14C4
:1005EA001206131206F012078A7F641207C6120750
:1005FA00417F911206131206F012064B8F15D20094
:08060A001206D512078AAF1594
:0106120022C5
:100699008F1E1207417F901206131206F07F401237
:1006A90006131206F0AF1E1206131206F002078A8D
:07004E00012600022400005E
:0D07B900538EF375D73075D6F843AF042288
:0407E900438E102209
:0407ED00538EEF2216
:0300630002059102
:10059100C0E0C0F0C083C082C0D075D000C000C030
:1005A10001C002C003C004C005C006C007AF2612C7
:1005B100079A0526E526B40803752600D007D0065C
:1005C100D005D004D003D002D001D000D0D0D08249
:0705D100D083D0F0D0E0322E
:10077800C0F9A4B0999282F880908883C6A1868E29
:02078800BFFFB1
:0A0055000808FFFFFFFFFFFFFFFF99
:10072D00C2A5D2A6D2A77401A807088002C333D8E8
:04073D00FCF5802225
:10079A0074082FF8E6D2A5D2A6D2A7F58002072DB3
:10076600C2AFED900778935BFE74082FF8A606D209
:02077600AF22B0
:0E07AA00C2AF7F08780874FFF608DFFCD2AFFC
:0107B800221E
:10006600EC4D6011E8497017ED33EC3304600DE494
:10007600FCFFFEFD22E933E8330470F80202161293
:1000860001E158046009E4CC248150062850090295
:10009600022028400302021DC0E0EB4A7044B980EA
:1000A60006D0E0FB02020CEF4E701CBD8008EBFF91
:1000B600EAFEE9FD80EBE98DF0A4FEE5F002014FD2
:1000C600E9CDF9EAFEEBFFEF89F0A4FCE5F0CE8975
:1000D600F0A42EFFE435F0CD89F0A42DFEE435F032
:1000E6008067EF4E7005BD80D780C3EF8BF0A4AC60
:1000F600F0EE8BF0A42CFCE435F0F8EF8AF0A42C9B
:10010600E5F038FCE433CB8DF0A42CFCE5F03BF8AD
:10011600EE8AF0A42CFCE5F038F8E433CF89F0A49D
:100126002CFCE5F038CF3400CE89F0A42FFFE5F0A3
:100136003EFEE433C98DF0A42EFEE5F039CD8AF0FB
:10014600A42FFFE5F03EFEE43DFD33D0E0FB500773
:100156000BBB000F020220EC2CFCEF33FFEE33FE4C
:06016600ED33FD0201F87B
:10016C0075F020800E75F010800575F0087D007E0E
:10017C00007F003392D530D503120280EC3340104F
:10018C00EF33FFEE33FEED33FDEC33FCD5F0ED2217
:0E019C00E5F0247EA2D513CC92E7CDCEFF2253
:1001AA00EDD2E7CD33EC3392D524814006E4FFFE4D
:1001BA00FDFC22FCE4CFCECDCC24E0501174FF80AC
:1001CA00EDC3CC13CCCD13CDCE13CECF13CF047049
:0701DA00F030D5DE020280C7
:1001E100E9D2E7C933E833F892D5EDD2E7CD33EC64
:0701F10033FC5002B2D522DD
:1001F800EC30E7100FBF000C0EBE00080DBD000468
:100208000BEB6014A2D5EB13FCED92E7FD2274FF13
:10021800FCFDFEFF22E480F8A2D574FF13FC7D806C
:03022800E480EF80
:0300000002047582
:0C047500787FE4F6D8FD7581260204BCF7
:10022B00BC000BBE0029EF8DF084FFADF022E4CCB7
:10023B00F875F008EF2FFFEE33FEEC33FCEE9DEC80
:10024B00984005FCEE9DFE0FD5F0E9E4CEFD22EDC6
:10025B00F8F5F0EE8420D21CFEADF075F008EF2F10
:10026B00FFED33FD4007985006D5F0F222C398FD01
:05027B000FD5F0EA229E
:0E028000C3E49FFFE49EFEE49DFDE49CFC228F
:1004810002028EE493A3F8E493A34003F68001F201
:1004910008DFF48029E493A3F85407240CC8C3337C
:1004A100C4540F4420C8834004F456800146F6DF4B
:1004B100E4800B010204081020408090004BE47E90
:1004C100019360BCA3FF543F30E509541FFEE49340
:1004D100A360010ECF54C025E060A840B8E493A307
:1004E100FAE493A3F8E493A3C8C582C8CAC583CA32
:1004F100F0A3C8C582C8CAC583CADFE9DEE780BEEA
:01005F0000A0
:00000001FF
